{
  "contractName": "A",
  "abi": [
    {
      "inputs": [],
      "name": "afunction",
      "outputs": [
        {
          "internalType": "string",
          "name": "",
          "type": "string"
        }
      ],
      "stateMutability": "nonpayable",
      "type": "function"
    }
  ],
  "bytecode": "0x608060405234801561001057600080fd5b5061017c806100206000396000f3fe608060405234801561001057600080fd5b506004361061002b5760003560e01c8063e509a1f814610030575b600080fd5b61003861004e565b6040516100459190610124565b60405180910390f35b60606040518060400160405280601e81526020017f74686973206973206166756e6374696f6e2072657475726e2076616c75650000815250905090565b600081519050919050565b600082825260208201905092915050565b60005b838110156100c55780820151818401526020810190506100aa565b838111156100d4576000848401525b50505050565b6000601f19601f8301169050919050565b60006100f68261008b565b6101008185610096565b93506101108185602086016100a7565b610119816100da565b840191505092915050565b6000602082019050818103600083015261013e81846100eb565b90509291505056fea2646970667358221220e1bf8944abd5090c57c77ed44feb611b9de82440b9a16725f696cd847b77630464736f6c634300080b0033",
  "immutableReferences": {},
  "source": "// SPDX-License-Identifier: MIT\npragma solidity >=0.8.0 <0.9.0;\n\ncontract A {\n  function afunction () public returns (string memory) {\n    return \"this is afunction return value\";\n  }\n}\n\n//interface IA {\n//  function afunction () external returns (string memory);\n//}\n\ncontract B {\n//  address public aAddress;\n//  A a;\n\n//  constructor(address _aAddress) public {\n//    aAddress = _aAddress;\n//    a = A(aAddress);\n//  }\n\n  function bfunction () public returns (string memory) {\n    //return a.afunction();\n    return \"this is bfunction return value\";\n  }\n}\n",
  "sourcePath": "/home/gavin/repos/smartContractExamples/contracts/Proxy.sol",
  "compiler": {
    "name": "solc",
    "version": "0.8.11+commit.d7f03943.Emscripten.clang"
  },
  "schemaVersion": "3.3.4",
  "updatedAt": "2022-06-14T17:54:46.480Z",
  "devdoc": {
    "kind": "dev",
    "methods": {},
    "version": 1
  },
  "userdoc": {
    "kind": "user",
    "methods": {},
    "version": 1
  }
}